{
  "_format": "hh-sol-artifact-1",
  "contractName": "CryptoExchange",
  "sourceName": "contract/CryptoExchange.sol",
  "abi": [
    {
      "inputs": [
        {
          "internalType": "address",
          "name": "_clxToken",
          "type": "address"
        }
      ],
      "stateMutability": "nonpayable",
      "type": "constructor"
    },
    {
      "anonymous": false,
      "inputs": [
        {
          "indexed": false,
          "internalType": "uint256",
          "name": "newRate",
          "type": "uint256"
        }
      ],
      "name": "BonusRateUpdated",
      "type": "event"
    },
    {
      "anonymous": false,
      "inputs": [
        {
          "indexed": false,
          "internalType": "address",
          "name": "token",
          "type": "address"
        },
        {
          "indexed": false,
          "internalType": "address",
          "name": "user",
          "type": "address"
        },
        {
          "indexed": false,
          "internalType": "uint256",
          "name": "amount",
          "type": "uint256"
        },
        {
          "indexed": false,
          "internalType": "uint256",
          "name": "balance",
          "type": "uint256"
        }
      ],
      "name": "Deposit",
      "type": "event"
    },
    {
      "anonymous": false,
      "inputs": [
        {
          "indexed": true,
          "internalType": "address",
          "name": "previousOwner",
          "type": "address"
        },
        {
          "indexed": true,
          "internalType": "address",
          "name": "newOwner",
          "type": "address"
        }
      ],
      "name": "OwnershipTransferred",
      "type": "event"
    },
    {
      "anonymous": false,
      "inputs": [
        {
          "indexed": false,
          "internalType": "address",
          "name": "user",
          "type": "address"
        },
        {
          "indexed": false,
          "internalType": "string",
          "name": "code",
          "type": "string"
        }
      ],
      "name": "ReferralCodeGenerated",
      "type": "event"
    },
    {
      "anonymous": false,
      "inputs": [
        {
          "indexed": false,
          "internalType": "uint256",
          "name": "newRate",
          "type": "uint256"
        }
      ],
      "name": "ReferralRateUpdated",
      "type": "event"
    },
    {
      "anonymous": false,
      "inputs": [
        {
          "indexed": false,
          "internalType": "address",
          "name": "user",
          "type": "address"
        },
        {
          "indexed": false,
          "internalType": "uint256",
          "name": "amount",
          "type": "uint256"
        }
      ],
      "name": "ReferralRewardClaimed",
      "type": "event"
    },
    {
      "anonymous": false,
      "inputs": [
        {
          "indexed": false,
          "internalType": "address",
          "name": "user",
          "type": "address"
        },
        {
          "indexed": false,
          "internalType": "address",
          "name": "tokenIn",
          "type": "address"
        },
        {
          "indexed": false,
          "internalType": "address",
          "name": "tokenOut",
          "type": "address"
        },
        {
          "indexed": false,
          "internalType": "uint256",
          "name": "amountIn",
          "type": "uint256"
        },
        {
          "indexed": false,
          "internalType": "uint256",
          "name": "amountOut",
          "type": "uint256"
        }
      ],
      "name": "Trade",
      "type": "event"
    },
    {
      "anonymous": false,
      "inputs": [
        {
          "indexed": false,
          "internalType": "address",
          "name": "token",
          "type": "address"
        },
        {
          "indexed": false,
          "internalType": "address",
          "name": "user",
          "type": "address"
        },
        {
          "indexed": false,
          "internalType": "uint256",
          "name": "amount",
          "type": "uint256"
        },
        {
          "indexed": false,
          "internalType": "uint256",
          "name": "balance",
          "type": "uint256"
        }
      ],
      "name": "Withdraw",
      "type": "event"
    },
    {
      "inputs": [
        {
          "internalType": "address",
          "name": "",
          "type": "address"
        },
        {
          "internalType": "address",
          "name": "",
          "type": "address"
        }
      ],
      "name": "balances",
      "outputs": [
        {
          "internalType": "uint256",
          "name": "",
          "type": "uint256"
        }
      ],
      "stateMutability": "view",
      "type": "function"
    },
    {
      "inputs": [],
      "name": "bonusRate",
      "outputs": [
        {
          "internalType": "uint256",
          "name": "",
          "type": "uint256"
        }
      ],
      "stateMutability": "view",
      "type": "function"
    },
    {
      "inputs": [],
      "name": "claimReferralRewards",
      "outputs": [],
      "stateMutability": "nonpayable",
      "type": "function"
    },
    {
      "inputs": [],
      "name": "clxToken",
      "outputs": [
        {
          "internalType": "contract IERC20",
          "name": "",
          "type": "address"
        }
      ],
      "stateMutability": "view",
      "type": "function"
    },
    {
      "inputs": [
        {
          "internalType": "string",
          "name": "",
          "type": "string"
        }
      ],
      "name": "codeToAddress",
      "outputs": [
        {
          "internalType": "address",
          "name": "",
          "type": "address"
        }
      ],
      "stateMutability": "view",
      "type": "function"
    },
    {
      "inputs": [
        {
          "internalType": "address",
          "name": "token",
          "type": "address"
        },
        {
          "internalType": "uint256",
          "name": "amount",
          "type": "uint256"
        }
      ],
      "name": "deposit",
      "outputs": [],
      "stateMutability": "nonpayable",
      "type": "function"
    },
    {
      "inputs": [
        {
          "internalType": "string",
          "name": "code",
          "type": "string"
        }
      ],
      "name": "generateReferralCode",
      "outputs": [],
      "stateMutability": "nonpayable",
      "type": "function"
    },
    {
      "inputs": [
        {
          "internalType": "address",
          "name": "token",
          "type": "address"
        },
        {
          "internalType": "address",
          "name": "user",
          "type": "address"
        }
      ],
      "name": "getBalance",
      "outputs": [
        {
          "internalType": "uint256",
          "name": "",
          "type": "uint256"
        }
      ],
      "stateMutability": "view",
      "type": "function"
    },
    {
      "inputs": [],
      "name": "getBonusRate",
      "outputs": [
        {
          "internalType": "uint256",
          "name": "",
          "type": "uint256"
        }
      ],
      "stateMutability": "view",
      "type": "function"
    },
    {
      "inputs": [],
      "name": "getReferralRate",
      "outputs": [
        {
          "internalType": "uint256",
          "name": "",
          "type": "uint256"
        }
      ],
      "stateMutability": "view",
      "type": "function"
    },
    {
      "inputs": [],
      "name": "getReferralRewards",
      "outputs": [
        {
          "internalType": "uint256",
          "name": "",
          "type": "uint256"
        }
      ],
      "stateMutability": "view",
      "type": "function"
    },
    {
      "inputs": [],
      "name": "owner",
      "outputs": [
        {
          "internalType": "address",
          "name": "",
          "type": "address"
        }
      ],
      "stateMutability": "view",
      "type": "function"
    },
    {
      "inputs": [
        {
          "internalType": "address",
          "name": "",
          "type": "address"
        }
      ],
      "name": "referralCodes",
      "outputs": [
        {
          "internalType": "string",
          "name": "",
          "type": "string"
        }
      ],
      "stateMutability": "view",
      "type": "function"
    },
    {
      "inputs": [],
      "name": "referralRate",
      "outputs": [
        {
          "internalType": "uint256",
          "name": "",
          "type": "uint256"
        }
      ],
      "stateMutability": "view",
      "type": "function"
    },
    {
      "inputs": [
        {
          "internalType": "address",
          "name": "",
          "type": "address"
        }
      ],
      "name": "referralRewards",
      "outputs": [
        {
          "internalType": "uint256",
          "name": "",
          "type": "uint256"
        }
      ],
      "stateMutability": "view",
      "type": "function"
    },
    {
      "inputs": [
        {
          "internalType": "address",
          "name": "",
          "type": "address"
        }
      ],
      "name": "referrers",
      "outputs": [
        {
          "internalType": "address",
          "name": "",
          "type": "address"
        }
      ],
      "stateMutability": "view",
      "type": "function"
    },
    {
      "inputs": [],
      "name": "renounceOwnership",
      "outputs": [],
      "stateMutability": "nonpayable",
      "type": "function"
    },
    {
      "inputs": [
        {
          "internalType": "uint256",
          "name": "newRate",
          "type": "uint256"
        }
      ],
      "name": "setBonusRate",
      "outputs": [],
      "stateMutability": "nonpayable",
      "type": "function"
    },
    {
      "inputs": [
        {
          "internalType": "uint256",
          "name": "newRate",
          "type": "uint256"
        }
      ],
      "name": "setReferralRate",
      "outputs": [],
      "stateMutability": "nonpayable",
      "type": "function"
    },
    {
      "inputs": [
        {
          "internalType": "address",
          "name": "tokenIn",
          "type": "address"
        },
        {
          "internalType": "address",
          "name": "tokenOut",
          "type": "address"
        },
        {
          "internalType": "uint256",
          "name": "amountIn",
          "type": "uint256"
        },
        {
          "internalType": "uint256",
          "name": "amountOut",
          "type": "uint256"
        }
      ],
      "name": "trade",
      "outputs": [],
      "stateMutability": "nonpayable",
      "type": "function"
    },
    {
      "inputs": [
        {
          "internalType": "address",
          "name": "newOwner",
          "type": "address"
        }
      ],
      "name": "transferOwnership",
      "outputs": [],
      "stateMutability": "nonpayable",
      "type": "function"
    },
    {
      "inputs": [
        {
          "internalType": "string",
          "name": "code",
          "type": "string"
        }
      ],
      "name": "useReferralCode",
      "outputs": [],
      "stateMutability": "nonpayable",
      "type": "function"
    },
    {
      "inputs": [
        {
          "internalType": "address",
          "name": "token",
          "type": "address"
        },
        {
          "internalType": "uint256",
          "name": "amount",
          "type": "uint256"
        }
      ],
      "name": "withdraw",
      "outputs": [],
      "stateMutability": "nonpayable",
      "type": "function"
    }
  ],
  "bytecode": "0x6080604052600560085560026009553480156200001b57600080fd5b506040516200322e3803806200322e83398181016040528101906200004191906200025b565b6001600081905550620000696200005d6200012360201b60201c565b6200012b60201b60201c565b600073ffffffffffffffffffffffffffffffffffffffff168173ffffffffffffffffffffffffffffffffffffffff1603620000db576040517f08c379a0000000000000000000000000000000000000000000000000000000008152600401620000d290620002ee565b60405180910390fd5b80600260006101000a81548173ffffffffffffffffffffffffffffffffffffffff021916908373ffffffffffffffffffffffffffffffffffffffff1602179055505062000310565b600033905090565b6000600160009054906101000a900473ffffffffffffffffffffffffffffffffffffffff16905081600160006101000a81548173ffffffffffffffffffffffffffffffffffffffff021916908373ffffffffffffffffffffffffffffffffffffffff1602179055508173ffffffffffffffffffffffffffffffffffffffff168173ffffffffffffffffffffffffffffffffffffffff167f8be0079c531659141344cd1fd0a4f28419497f9722a3daafe3b4186f6b6457e060405160405180910390a35050565b600080fd5b600073ffffffffffffffffffffffffffffffffffffffff82169050919050565b60006200022382620001f6565b9050919050565b620002358162000216565b81146200024157600080fd5b50565b60008151905062000255816200022a565b92915050565b600060208284031215620002745762000273620001f1565b5b6000620002848482850162000244565b91505092915050565b600082825260208201905092915050565b7f496e76616c696420434c5820746f6b656e206164647265737300000000000000600082015250565b6000620002d66019836200028d565b9150620002e3826200029e565b602082019050919050565b600060208201905081810360008301526200030981620002c7565b9050919050565b612f0e80620003206000396000f3fe608060405234801561001057600080fd5b506004361061014d5760003560e01c80639932dc05116100c3578063d4fac45d1161007c578063d4fac45d1461037a578063e4fcf329146103aa578063f2fde38b146103c6578063f3fef3a3146103e2578063f794eb58146103fe578063f84d78021461041c5761014d565b80639932dc05146102a4578063a053ce1f146102d4578063bc9bbcd8146102f2578063c23f001f14610310578063ca4863fd14610340578063cdf866fd1461035c5761014d565b806353aaa63b1161011557806353aaa63b146101e05780635af123f414610210578063678dddca1461022e578063715018a61461024c5780638da5cb5b146102565780639534dd3e146102745761014d565b806305eaab4b1461015257806333a8433a1461015c57806347e7ef24146101785780634849b6c8146101945780634a3b68cc146101b0575b600080fd5b61015a610438565b005b61017660048036038101906101719190611d54565b610550565b005b610192600480360381019061018d9190611e31565b61087a565b005b6101ae60048036038101906101a99190611e71565b610adc565b005b6101ca60048036038101906101c59190611ed8565b611089565b6040516101d79190611f14565b60405180910390f35b6101fa60048036038101906101f59190611ed8565b6110bc565b6040516102079190611f3e565b60405180910390f35b6102186110d4565b6040516102259190611f3e565b60405180910390f35b6102366110da565b6040516102439190611fb8565b60405180910390f35b610254611100565b005b61025e611114565b60405161026b9190611f14565b60405180910390f35b61028e60048036038101906102899190611ed8565b61113e565b60405161029b9190612052565b60405180910390f35b6102be60048036038101906102b99190611d54565b6111de565b6040516102cb9190611f14565b60405180910390f35b6102dc611227565b6040516102e99190611f3e565b60405180910390f35b6102fa61122d565b6040516103079190611f3e565b60405180910390f35b61032a60048036038101906103259190612074565b611237565b6040516103379190611f3e565b60405180910390f35b61035a600480360381019061035591906120b4565b61125c565b005b6103646112e9565b6040516103719190611f3e565b60405180910390f35b610394600480360381019061038f9190612074565b611330565b6040516103a19190611f3e565b60405180910390f35b6103c460048036038101906103bf91906120b4565b6113b7565b005b6103e060048036038101906103db9190611ed8565b611444565b005b6103fc60048036038101906103f79190611e31565b6114c7565b005b6104066117e6565b6040516104139190611f3e565b60405180910390f35b61043660048036038101906104319190611d54565b6117f0565b005b610440611a55565b6000600760003373ffffffffffffffffffffffffffffffffffffffff1673ffffffffffffffffffffffffffffffffffffffff168152602001908152602001600020549050600081116104c7576040517f08c379a00000000000000000000000000000000000000000000000000000000081526004016104be9061212d565b60405180910390fd5b6000600760003373ffffffffffffffffffffffffffffffffffffffff1673ffffffffffffffffffffffffffffffffffffffff168152602001908152602001600020819055507f5be4d22009fea85381595ed91090bc5c0bc92a93fe07ed7472c5888eb1993f83338260405161053d92919061214d565b60405180910390a15061054e611aa4565b565b6000815111610594576040517f08c379a000000000000000000000000000000000000000000000000000000000815260040161058b906121c2565b60405180910390fd5b600073ffffffffffffffffffffffffffffffffffffffff166005826040516105bc919061221e565b908152602001604051809103902060009054906101000a900473ffffffffffffffffffffffffffffffffffffffff1673ffffffffffffffffffffffffffffffffffffffff1603610641576040517f08c379a000000000000000000000000000000000000000000000000000000000815260040161063890612281565b60405180910390fd5b600073ffffffffffffffffffffffffffffffffffffffff16600660003373ffffffffffffffffffffffffffffffffffffffff1673ffffffffffffffffffffffffffffffffffffffff16815260200190815260200160002060009054906101000a900473ffffffffffffffffffffffffffffffffffffffff1673ffffffffffffffffffffffffffffffffffffffff161461070f576040517f08c379a0000000000000000000000000000000000000000000000000000000008152600401610706906122ed565b60405180910390fd5b3373ffffffffffffffffffffffffffffffffffffffff16600582604051610736919061221e565b908152602001604051809103902060009054906101000a900473ffffffffffffffffffffffffffffffffffffffff1673ffffffffffffffffffffffffffffffffffffffff16036107bb576040517f08c379a00000000000000000000000000000000000000000000000000000000081526004016107b290612359565b60405180910390fd5b6005816040516107cb919061221e565b908152602001604051809103902060009054906101000a900473ffffffffffffffffffffffffffffffffffffffff16600660003373ffffffffffffffffffffffffffffffffffffffff1673ffffffffffffffffffffffffffffffffffffffff16815260200190815260200160002060006101000a81548173ffffffffffffffffffffffffffffffffffffffff021916908373ffffffffffffffffffffffffffffffffffffffff16021790555050565b610882611a55565b600081116108c5576040517f08c379a00000000000000000000000000000000000000000000000000000000081526004016108bc906123c5565b60405180910390fd5b8173ffffffffffffffffffffffffffffffffffffffff166323b872dd3330846040518463ffffffff1660e01b8152600401610902939291906123e5565b6020604051808303816000875af1158015610921573d6000803e3d6000fd5b505050506040513d601f19601f820116820180604052508101906109459190612454565b610984576040517f08c379a000000000000000000000000000000000000000000000000000000000815260040161097b906124cd565b60405180910390fd5b80600360008473ffffffffffffffffffffffffffffffffffffffff1673ffffffffffffffffffffffffffffffffffffffff16815260200190815260200160002060003373ffffffffffffffffffffffffffffffffffffffff1673ffffffffffffffffffffffffffffffffffffffff1681526020019081526020016000206000828254610a10919061251c565b925050819055507fdcbc1c05240f31ff3ad067ef1ee35ce4997762752e3a095284754544f4c709d7823383600360008773ffffffffffffffffffffffffffffffffffffffff1673ffffffffffffffffffffffffffffffffffffffff16815260200190815260200160002060003373ffffffffffffffffffffffffffffffffffffffff1673ffffffffffffffffffffffffffffffffffffffff16815260200190815260200160002054604051610ac89493929190612550565b60405180910390a1610ad8611aa4565b5050565b610ae4611a55565b600082118015610af45750600081115b610b33576040517f08c379a0000000000000000000000000000000000000000000000000000000008152600401610b2a906125e1565b60405180910390fd5b81600360008673ffffffffffffffffffffffffffffffffffffffff1673ffffffffffffffffffffffffffffffffffffffff16815260200190815260200160002060003373ffffffffffffffffffffffffffffffffffffffff1673ffffffffffffffffffffffffffffffffffffffff168152602001908152602001600020541015610bf2576040517f08c379a0000000000000000000000000000000000000000000000000000000008152600401610be990612673565b60405180910390fd5b80600360008573ffffffffffffffffffffffffffffffffffffffff1673ffffffffffffffffffffffffffffffffffffffff16815260200190815260200160002060003073ffffffffffffffffffffffffffffffffffffffff1673ffffffffffffffffffffffffffffffffffffffff168152602001908152602001600020541015610cb1576040517f08c379a0000000000000000000000000000000000000000000000000000000008152600401610ca890612705565b60405180910390fd5b6000606460085483610cc39190612725565b610ccd9190612796565b905060008183610cdd919061251c565b90506000600660003373ffffffffffffffffffffffffffffffffffffffff1673ffffffffffffffffffffffffffffffffffffffff16815260200190815260200160002060009054906101000a900473ffffffffffffffffffffffffffffffffffffffff169050600073ffffffffffffffffffffffffffffffffffffffff168173ffffffffffffffffffffffffffffffffffffffff1614610ded576000606460095486610d899190612725565b610d939190612796565b905080600760008473ffffffffffffffffffffffffffffffffffffffff1673ffffffffffffffffffffffffffffffffffffffff1681526020019081526020016000206000828254610de4919061251c565b92505081905550505b84600360008973ffffffffffffffffffffffffffffffffffffffff1673ffffffffffffffffffffffffffffffffffffffff16815260200190815260200160002060003373ffffffffffffffffffffffffffffffffffffffff1673ffffffffffffffffffffffffffffffffffffffff1681526020019081526020016000206000828254610e7991906127c7565b9250508190555084600360008973ffffffffffffffffffffffffffffffffffffffff1673ffffffffffffffffffffffffffffffffffffffff16815260200190815260200160002060003073ffffffffffffffffffffffffffffffffffffffff1673ffffffffffffffffffffffffffffffffffffffff1681526020019081526020016000206000828254610f0c919061251c565b9250508190555081600360008873ffffffffffffffffffffffffffffffffffffffff1673ffffffffffffffffffffffffffffffffffffffff16815260200190815260200160002060003073ffffffffffffffffffffffffffffffffffffffff1673ffffffffffffffffffffffffffffffffffffffff1681526020019081526020016000206000828254610f9f91906127c7565b9250508190555081600360008873ffffffffffffffffffffffffffffffffffffffff1673ffffffffffffffffffffffffffffffffffffffff16815260200190815260200160002060003373ffffffffffffffffffffffffffffffffffffffff1673ffffffffffffffffffffffffffffffffffffffff1681526020019081526020016000206000828254611032919061251c565b925050819055507fec0d3e799aa270a144d7e3be084ccfc657450e33ecea1b1a4154c95cedaae5c333888888866040516110709594939291906127fb565b60405180910390a1505050611083611aa4565b50505050565b60066020528060005260406000206000915054906101000a900473ffffffffffffffffffffffffffffffffffffffff1681565b60076020528060005260406000206000915090505481565b60085481565b600260009054906101000a900473ffffffffffffffffffffffffffffffffffffffff1681565b611108611aae565b6111126000611b2c565b565b6000600160009054906101000a900473ffffffffffffffffffffffffffffffffffffffff16905090565b6004602052806000526040600020600091509050805461115d9061287d565b80601f01602080910402602001604051908101604052809291908181526020018280546111899061287d565b80156111d65780601f106111ab576101008083540402835291602001916111d6565b820191906000526020600020905b8154815290600101906020018083116111b957829003601f168201915b505050505081565b6005818051602081018201805184825260208301602085012081835280955050505050506000915054906101000a900473ffffffffffffffffffffffffffffffffffffffff1681565b60095481565b6000600954905090565b6003602052816000526040600020602052806000526040600020600091509150505481565b611264611aae565b60058111156112a8576040517f08c379a000000000000000000000000000000000000000000000000000000000815260040161129f906128fa565b60405180910390fd5b806009819055507fad6ef4a74a8bc3eb14106743aa437e34fdeb5c266fdeab63cceee64f916f1055816040516112de9190611f3e565b60405180910390a150565b6000600760003373ffffffffffffffffffffffffffffffffffffffff1673ffffffffffffffffffffffffffffffffffffffff16815260200190815260200160002054905090565b6000600360008473ffffffffffffffffffffffffffffffffffffffff1673ffffffffffffffffffffffffffffffffffffffff16815260200190815260200160002060008373ffffffffffffffffffffffffffffffffffffffff1673ffffffffffffffffffffffffffffffffffffffff16815260200190815260200160002054905092915050565b6113bf611aae565b600a811115611403576040517f08c379a00000000000000000000000000000000000000000000000000000000081526004016113fa90612966565b60405180910390fd5b806008819055507f069c0ea477c579b83ac19b57f85b06b4467a81709b4262e444588e94aa601d94816040516114399190611f3e565b60405180910390a150565b61144c611aae565b600073ffffffffffffffffffffffffffffffffffffffff168173ffffffffffffffffffffffffffffffffffffffff16036114bb576040517f08c379a00000000000000000000000000000000000000000000000000000000081526004016114b2906129f8565b60405180910390fd5b6114c481611b2c565b50565b6114cf611a55565b60008111611512576040517f08c379a0000000000000000000000000000000000000000000000000000000008152600401611509906123c5565b60405180910390fd5b80600360008473ffffffffffffffffffffffffffffffffffffffff1673ffffffffffffffffffffffffffffffffffffffff16815260200190815260200160002060003373ffffffffffffffffffffffffffffffffffffffff1673ffffffffffffffffffffffffffffffffffffffff1681526020019081526020016000205410156115d1576040517f08c379a00000000000000000000000000000000000000000000000000000000081526004016115c890612a64565b60405180910390fd5b80600360008473ffffffffffffffffffffffffffffffffffffffff1673ffffffffffffffffffffffffffffffffffffffff16815260200190815260200160002060003373ffffffffffffffffffffffffffffffffffffffff1673ffffffffffffffffffffffffffffffffffffffff168152602001908152602001600020600082825461165d91906127c7565b925050819055508173ffffffffffffffffffffffffffffffffffffffff1663a9059cbb33836040518363ffffffff1660e01b815260040161169f92919061214d565b6020604051808303816000875af11580156116be573d6000803e3d6000fd5b505050506040513d601f19601f820116820180604052508101906116e29190612454565b611721576040517f08c379a0000000000000000000000000000000000000000000000000000000008152600401611718906124cd565b60405180910390fd5b7ff341246adaac6f497bc2a656f546ab9e182111d630394f0c57c710a59a2cb567823383600360008773ffffffffffffffffffffffffffffffffffffffff1673ffffffffffffffffffffffffffffffffffffffff16815260200190815260200160002060003373ffffffffffffffffffffffffffffffffffffffff1673ffffffffffffffffffffffffffffffffffffffff168152602001908152602001600020546040516117d29493929190612550565b60405180910390a16117e2611aa4565b5050565b6000600854905090565b6000815111611834576040517f08c379a000000000000000000000000000000000000000000000000000000000815260040161182b906121c2565b60405180910390fd5b600073ffffffffffffffffffffffffffffffffffffffff1660058260405161185c919061221e565b908152602001604051809103902060009054906101000a900473ffffffffffffffffffffffffffffffffffffffff1673ffffffffffffffffffffffffffffffffffffffff16146118e1576040517f08c379a00000000000000000000000000000000000000000000000000000000081526004016118d890612ad0565b60405180910390fd5b6000600460003373ffffffffffffffffffffffffffffffffffffffff1673ffffffffffffffffffffffffffffffffffffffff168152602001908152602001600020805461192d9061287d565b90501461196f576040517f08c379a000000000000000000000000000000000000000000000000000000000815260040161196690612b3c565b60405180910390fd5b80600460003373ffffffffffffffffffffffffffffffffffffffff1673ffffffffffffffffffffffffffffffffffffffff16815260200190815260200160002090816119bb9190612cfe565b50336005826040516119cd919061221e565b908152602001604051809103902060006101000a81548173ffffffffffffffffffffffffffffffffffffffff021916908373ffffffffffffffffffffffffffffffffffffffff1602179055507f86d606287c9d4f3a350b0e6ea78a04d97425fff091713f4a433942578dc6f1613382604051611a4a929190612dd0565b60405180910390a150565b600260005403611a9a576040517f08c379a0000000000000000000000000000000000000000000000000000000008152600401611a9190612e4c565b60405180910390fd5b6002600081905550565b6001600081905550565b611ab6611bf2565b73ffffffffffffffffffffffffffffffffffffffff16611ad4611114565b73ffffffffffffffffffffffffffffffffffffffff1614611b2a576040517f08c379a0000000000000000000000000000000000000000000000000000000008152600401611b2190612eb8565b60405180910390fd5b565b6000600160009054906101000a900473ffffffffffffffffffffffffffffffffffffffff16905081600160006101000a81548173ffffffffffffffffffffffffffffffffffffffff021916908373ffffffffffffffffffffffffffffffffffffffff1602179055508173ffffffffffffffffffffffffffffffffffffffff168173ffffffffffffffffffffffffffffffffffffffff167f8be0079c531659141344cd1fd0a4f28419497f9722a3daafe3b4186f6b6457e060405160405180910390a35050565b600033905090565b6000604051905090565b600080fd5b600080fd5b600080fd5b600080fd5b6000601f19601f8301169050919050565b7f4e487b7100000000000000000000000000000000000000000000000000000000600052604160045260246000fd5b611c6182611c18565b810181811067ffffffffffffffff82111715611c8057611c7f611c29565b5b80604052505050565b6000611c93611bfa565b9050611c9f8282611c58565b919050565b600067ffffffffffffffff821115611cbf57611cbe611c29565b5b611cc882611c18565b9050602081019050919050565b82818337600083830152505050565b6000611cf7611cf284611ca4565b611c89565b905082815260208101848484011115611d1357611d12611c13565b5b611d1e848285611cd5565b509392505050565b600082601f830112611d3b57611d3a611c0e565b5b8135611d4b848260208601611ce4565b91505092915050565b600060208284031215611d6a57611d69611c04565b5b600082013567ffffffffffffffff811115611d8857611d87611c09565b5b611d9484828501611d26565b91505092915050565b600073ffffffffffffffffffffffffffffffffffffffff82169050919050565b6000611dc882611d9d565b9050919050565b611dd881611dbd565b8114611de357600080fd5b50565b600081359050611df581611dcf565b92915050565b6000819050919050565b611e0e81611dfb565b8114611e1957600080fd5b50565b600081359050611e2b81611e05565b92915050565b60008060408385031215611e4857611e47611c04565b5b6000611e5685828601611de6565b9250506020611e6785828601611e1c565b9150509250929050565b60008060008060808587031215611e8b57611e8a611c04565b5b6000611e9987828801611de6565b9450506020611eaa87828801611de6565b9350506040611ebb87828801611e1c565b9250506060611ecc87828801611e1c565b91505092959194509250565b600060208284031215611eee57611eed611c04565b5b6000611efc84828501611de6565b91505092915050565b611f0e81611dbd565b82525050565b6000602082019050611f296000830184611f05565b92915050565b611f3881611dfb565b82525050565b6000602082019050611f536000830184611f2f565b92915050565b6000819050919050565b6000611f7e611f79611f7484611d9d565b611f59565b611d9d565b9050919050565b6000611f9082611f63565b9050919050565b6000611fa282611f85565b9050919050565b611fb281611f97565b82525050565b6000602082019050611fcd6000830184611fa9565b92915050565b600081519050919050565b600082825260208201905092915050565b60005b8381101561200d578082015181840152602081019050611ff2565b60008484015250505050565b600061202482611fd3565b61202e8185611fde565b935061203e818560208601611fef565b61204781611c18565b840191505092915050565b6000602082019050818103600083015261206c8184612019565b905092915050565b6000806040838503121561208b5761208a611c04565b5b600061209985828601611de6565b92505060206120aa85828601611de6565b9150509250929050565b6000602082840312156120ca576120c9611c04565b5b60006120d884828501611e1c565b91505092915050565b7f4e6f207265776172647320746f20636c61696d00000000000000000000000000600082015250565b6000612117601383611fde565b9150612122826120e1565b602082019050919050565b600060208201905081810360008301526121468161210a565b9050919050565b60006040820190506121626000830185611f05565b61216f6020830184611f2f565b9392505050565b7f436f64652063616e6e6f7420626520656d707479000000000000000000000000600082015250565b60006121ac601483611fde565b91506121b782612176565b602082019050919050565b600060208201905081810360008301526121db8161219f565b9050919050565b600081905092915050565b60006121f882611fd3565b61220281856121e2565b9350612212818560208601611fef565b80840191505092915050565b600061222a82846121ed565b915081905092915050565b7f496e76616c696420636f64650000000000000000000000000000000000000000600082015250565b600061226b600c83611fde565b915061227682612235565b602082019050919050565b6000602082019050818103600083015261229a8161225e565b9050919050565b7f416c7265616479207573696e67206120726566657272616c20636f6465000000600082015250565b60006122d7601d83611fde565b91506122e2826122a1565b602082019050919050565b60006020820190508181036000830152612306816122ca565b9050919050565b7f43616e6e6f7420757365206f776e20636f646500000000000000000000000000600082015250565b6000612343601383611fde565b915061234e8261230d565b602082019050919050565b6000602082019050818103600083015261237281612336565b9050919050565b7f416d6f756e74206d7573742062652067726561746572207468616e2030000000600082015250565b60006123af601d83611fde565b91506123ba82612379565b602082019050919050565b600060208201905081810360008301526123de816123a2565b9050919050565b60006060820190506123fa6000830186611f05565b6124076020830185611f05565b6124146040830184611f2f565b949350505050565b60008115159050919050565b6124318161241c565b811461243c57600080fd5b50565b60008151905061244e81612428565b92915050565b60006020828403121561246a57612469611c04565b5b60006124788482850161243f565b91505092915050565b7f5472616e73666572206661696c65640000000000000000000000000000000000600082015250565b60006124b7600f83611fde565b91506124c282612481565b602082019050919050565b600060208201905081810360008301526124e6816124aa565b9050919050565b7f4e487b7100000000000000000000000000000000000000000000000000000000600052601160045260246000fd5b600061252782611dfb565b915061253283611dfb565b925082820190508082111561254a576125496124ed565b5b92915050565b60006080820190506125656000830187611f05565b6125726020830186611f05565b61257f6040830185611f2f565b61258c6060830184611f2f565b95945050505050565b7f416d6f756e7473206d7573742062652067726561746572207468616e20300000600082015250565b60006125cb601e83611fde565b91506125d682612595565b602082019050919050565b600060208201905081810360008301526125fa816125be565b9050919050565b7f496e73756666696369656e742062616c616e6365206f6620696e70757420746f60008201527f6b656e0000000000000000000000000000000000000000000000000000000000602082015250565b600061265d602383611fde565b915061266882612601565b604082019050919050565b6000602082019050818103600083015261268c81612650565b9050919050565b7f496e73756666696369656e742062616c616e6365206f66206f7574707574207460008201527f6f6b656e00000000000000000000000000000000000000000000000000000000602082015250565b60006126ef602483611fde565b91506126fa82612693565b604082019050919050565b6000602082019050818103600083015261271e816126e2565b9050919050565b600061273082611dfb565b915061273b83611dfb565b925082820261274981611dfb565b915082820484148315176127605761275f6124ed565b5b5092915050565b7f4e487b7100000000000000000000000000000000000000000000000000000000600052601260045260246000fd5b60006127a182611dfb565b91506127ac83611dfb565b9250826127bc576127bb612767565b5b828204905092915050565b60006127d282611dfb565b91506127dd83611dfb565b92508282039050818111156127f5576127f46124ed565b5b92915050565b600060a0820190506128106000830188611f05565b61281d6020830187611f05565b61282a6040830186611f05565b6128376060830185611f2f565b6128446080830184611f2f565b9695505050505050565b7f4e487b7100000000000000000000000000000000000000000000000000000000600052602260045260246000fd5b6000600282049050600182168061289557607f821691505b6020821081036128a8576128a761284e565b5b50919050565b7f526174652063616e6e6f74206578636565642035250000000000000000000000600082015250565b60006128e4601583611fde565b91506128ef826128ae565b602082019050919050565b60006020820190508181036000830152612913816128d7565b9050919050565b7f526174652063616e6e6f74206578636565642031302500000000000000000000600082015250565b6000612950601683611fde565b915061295b8261291a565b602082019050919050565b6000602082019050818103600083015261297f81612943565b9050919050565b7f4f776e61626c653a206e6577206f776e657220697320746865207a65726f206160008201527f6464726573730000000000000000000000000000000000000000000000000000602082015250565b60006129e2602683611fde565b91506129ed82612986565b604082019050919050565b60006020820190508181036000830152612a11816129d5565b9050919050565b7f496e73756666696369656e742062616c616e6365000000000000000000000000600082015250565b6000612a4e601483611fde565b9150612a5982612a18565b602082019050919050565b60006020820190508181036000830152612a7d81612a41565b9050919050565b7f436f646520616c72656164792065786973747300000000000000000000000000600082015250565b6000612aba601383611fde565b9150612ac582612a84565b602082019050919050565b60006020820190508181036000830152612ae981612aad565b9050919050565b7f5573657220616c726561647920686173206120636f6465000000000000000000600082015250565b6000612b26601783611fde565b9150612b3182612af0565b602082019050919050565b60006020820190508181036000830152612b5581612b19565b9050919050565b60008190508160005260206000209050919050565b60006020601f8301049050919050565b600082821b905092915050565b600060088302612bbe7fffffffffffffffffffffffffffffffffffffffffffffffffffffffffffffffff82612b81565b612bc88683612b81565b95508019841693508086168417925050509392505050565b6000612bfb612bf6612bf184611dfb565b611f59565b611dfb565b9050919050565b6000819050919050565b612c1583612be0565b612c29612c2182612c02565b848454612b8e565b825550505050565b600090565b612c3e612c31565b612c49818484612c0c565b505050565b5b81811015612c6d57612c62600082612c36565b600181019050612c4f565b5050565b601f821115612cb257612c8381612b5c565b612c8c84612b71565b81016020851015612c9b578190505b612caf612ca785612b71565b830182612c4e565b50505b505050565b600082821c905092915050565b6000612cd560001984600802612cb7565b1980831691505092915050565b6000612cee8383612cc4565b9150826002028217905092915050565b612d0782611fd3565b67ffffffffffffffff811115612d2057612d1f611c29565b5b612d2a825461287d565b612d35828285612c71565b600060209050601f831160018114612d685760008415612d56578287015190505b612d608582612ce2565b865550612dc8565b601f198416612d7686612b5c565b60005b82811015612d9e57848901518255600182019150602085019450602081019050612d79565b86831015612dbb5784890151612db7601f891682612cc4565b8355505b6001600288020188555050505b505050505050565b6000604082019050612de56000830185611f05565b8181036020830152612df78184612019565b90509392505050565b7f5265656e7472616e637947756172643a207265656e7472616e742063616c6c00600082015250565b6000612e36601f83611fde565b9150612e4182612e00565b602082019050919050565b60006020820190508181036000830152612e6581612e29565b9050919050565b7f4f776e61626c653a2063616c6c6572206973206e6f7420746865206f776e6572600082015250565b6000612ea2602083611fde565b9150612ead82612e6c565b602082019050919050565b60006020820190508181036000830152612ed181612e95565b905091905056fea26469706673582212209576a39b26ac436014b9e086e33d6d9117932b898f1a4e2416b5ef098044bdaf64736f6c63430008140033",
  "linkReferences": {},
  "deployedLinkReferences": {}
}